:100000000C946B000C94C3010C94D7010C948800E1
:100010000C9488000C9488000C9488000C94880040
:100020000C9488000C94EB010C9488000C948800CC
:100030000C9488000C9498060C9488000C9488000A
:100040000C9488000C9488000C9488000C94880010
:100050000C94880007634236B79BD8A71A396856B4
:1000600018AEBAAB558C1D3CB7CC5763BD6DEDFDDA
:10007000753EF6177231BF000000803F0800000097
:10008000BE922449123EABAAAA2ABECDCCCC4C3E8D
:1000900000000080BEABAAAAAA3E00000000BF007C
:1000A0000000803F0000000000084178D3BB438778
:1000B000D1133D190E3CC3BD4282AD2B3E68EC828C
:1000C00076BED98FE1A93E4C80EFFFBE01C4FF7F11
:1000D0003F000000000011241FBECFE5D8E0DEBFC6
:1000E000CDBF11E0A0E6B0E0E0E3F6E102C005908C
:1000F0000D92AC3BB107D9F721E0ACEBB1E001C008
:100100001D92A93DB207E1F70E94A3000C94160BC3
:100110000C94000081E00E94C00381E690E00E9400
:100120004A0364EF71E082E00E942502F894A89AE5
:1001300085B78F7885BF85B7806885BF889585B777
:100140008F7785BFFFCF0E9422020E94710564E66F
:1001500070E082E00E9425020E9482050E949003C6
:100160000E94180781B3837F81BB82B38C6082BBFE
:100170008BB7806C8BBF85B78A6085BF0E944F02AA
:10018000979884EF91E00E943B020E94F20281EE78
:100190008DBD8BE78CBD89B7846089BF1FBC8EB5D0
:1001A00084608EBD0E948E050E94740381E790E0FA
:1001B0000E944A03789485B78F7885BF85B7806899
:1001C00085BF889585B78F7785BF8091C10181FFF5
:1001D0006BC0B09B19C08091C10182FD48C0809165
:1001E000C10184608093C10181E00E94C00380E866
:1001F00090E00E944A0366E970E081E00E942502D7
:100200008BB780688BBF33C08091C10182FF2FC044
:100210008091C1018B7F8093C1018091C1018F7E4C
:100220008093C1018091C1018F7B8093C10181E0E6
:100230000E94C0038FE890E00E944A038BB78F773B
:100240008BBF0E948A0566E970E081E00E9425026A
:1002500088EE93E00E943B0281E00E94C0038FE998
:1002600090E00E944A0388EE93E00E943B02809156
:10027000C10186FF14C0B19912C00E94740380EBC3
:1002800090E00E944A030E948A058BB78F778BBF4C
:100290006AEF70E081E00E9425020E948A0080914E
:1002A000C1018D7F8093C1018091C10185FF23C071
:1002B0008091C1018F7D8093C10181E00E94C003C4
:1002C00081EC90E00E944A036AEF70E081E00E94B6
:1002D000250288EE93E00E943B0262ED70E080EF21
:1002E00090E00E9495050E94740381EC90E00E94CA
:1002F0004A030E948A008091C10180FF39C0809129
:10030000C10182FF30C064E670E081E00E942502F6
:100310008091C10184FD14C08091C10180618093EE
:10032000C1010E94870581E00E94C0038AEF90E02E
:100330000E944A038091C10180648093C10113C06F
:100340008091C1018F7E8093C1010E948A0581E066
:100350000E94C0038FE990E00E944A038091C1018E
:100360008F7B8093C1018091C1018E7F8093C101F9
:1003700085B78F7885BF85B7806885BF889585B735
:100380008F7785BF22CF1F920F920FB60F92112445
:100390008F938091C10180628093C1018BB780648B
:1003A0008BBF8F910F900FBE0F901F9018951F92CB
:1003B0000F920FB60F9211248F938091C10181602B
:1003C0008093C1018BB780688BBF8F910F900FBE58
:1003D0000F901F9018951F920F920FB60F92112435
:1003E0008F9381EE8DBD8BE78CBD8091C10181FD26
:1003F0000EC08091BD018F5F8093BD01823038F0C7
:100400008091C10182608093C1011092BD018091F1
:10041000BC018F5F8093BC01843118F01092BC0145
:1004200008C0813041F028F0823019F0833021F487
:1004300002C0A89A01C0A8988F910F900FBE0F908C
:100440001F901895A19AA99808950F931F93CF9381
:10045000882369F08B01C82FA99AC8010E943B022A
:10046000A99884E690E00E943B02C150A9F7CF9181
:100470001F910F910895009741F0EFECF7E031974D
:10048000F1F700C000000197C1F70895009731F01F
:1004900022E02A95F1F700C00197D1F708958F9ACD
:1004A00097980895EF92FF920F931F93CF93DF9346
:1004B000EC017B010E9426078432E1F70E942607A7
:1004C0008734C1F70E9426078035A1F70E942607CE
:1004D000873481F70E942607873461F70E94260738
:1004E000813441F70E9426078C32E1F70E942607EB
:1004F0008C32E1F78E0129960E942607F80181933C
:100500008F01EC17FD07C1F70E9426078E34E1F733
:100510000E9426078C32E1F78701E7012A960E94A4
:100520002607F80181938F01EC17FD07C1F7DF91D2
:10053000CF911F910F91FF90EF9008958EE691E07B
:100540000E942A070E9426078B34E1F781E0089574
:100550000F931F93CF93DF93EC018B0181E00E94F7
:10056000C0038AE091E00E944A0388E591E00E947E
:100570002A07CE010E942A0787E191E00E942A07FC
:100580000E9426078E33E1F789E191E00E942A0755
:10059000C8010E942A078AE191E00E942A078AE1A5
:1005A0000E9422070E9426078B3451F08534D1F730
:1005B0000E949E02811104C080E391E00E944A03E0
:1005C00089E391E00E944A030E949E0288EE93E034
:1005D0000E943B0281E00E94C003DF91CF911F91F6
:1005E0000F910895CF9381E00E94C0038CE391E0C6
:1005F0000E944A030E949E02C82F8823D1F083E6FE
:1006000091E00E942A070E9426078B34E1F785E4D7
:1006100091E00E942A070E9426078B34E1F789E3C4
:1006200091E00E944A0388EE93E00E943B02C1E001
:1006300004C080E391E00E944A038C2FCF9108957B
:10064000AB9881E090E00E944602AB9A0895CF9368
:10065000C82F85B39C2F907F8F70892B85BB0E94FC
:10066000200325B330E1C39FC0011124922F9F7056
:10067000892B85BB0E9420038EEE92E00E944602E9
:10068000CF910895AA980E9427030895AA9A0E94DC
:10069000270308950F931F93CF93DF93FC012081CD
:1006A0002223E9F0EC0100EC10E88091C2018039CE
:1006B00019F0803D21F005C00093C20102C01093E3
:1006C000C2018091C20191E0980F9093C2010E94F3
:1006D000420389910E94460388818111E6CFDF9110
:1006E000CF911F910F91089581E00E94420380E80D
:1006F0008093C201089580E80E94420380E88093BD
:10070000C201089580EC0E94420380EC8093C201F4
:10071000089582E791E00E944A030E9482030895AF
:1007200084B38C6F84BB85B3837085BB88E290E013
:100730000E943B0283E30E94420385E090E00E9416
:100740003B0283E30E94420384EF91E00E94460251
:1007500082E30E94420384EF91E00E94460288E215
:100760000E9442038CE00E94420386E00E94420302
:1007700081E00E9442030E9474030E94890308954D
:10078000CF93DF93D82F882319F0813021F005C053
:100790000E947B0302C00E948203C0E180E20E94AB
:1007A0004603C150D9F7DD2319F0D13021F005C03F
:1007B0000E947B0302C00E948203DF91CF910895C3
:1007C0009B01215031091216130684F4FC01E60F37
:1007D000F71FDC0180E090E04C9152915D934083E3
:1007E00001962150310982179307B4F30895EF92CF
:1007F000FF920F931F93CF93DF938B019A01009782
:1008000099F0FB01C0E0D0E00F2EFAE0EF2EF12CC2
:10081000F02D2196B7010E94D70A805D8193862F23
:10082000972F0097B1F702C0C0E0D0E0C217D307FE
:1008300064F4F801EC0FFD1FA801420F531F80E381
:100840008193E417F507E1F7E901BE01C8010E94B1
:10085000E003F801EC0FFD1F1082CE01DF91CF9174
:100860001F910F91FF90EF9008952F923F924F921A
:100870005F926F927F928F929F92AF92BF92CF9230
:10088000DF92EF92FF920F931F93CF93DF934B0171
:100890005C018A01E9010E9421086B017C0140E0B2
:1008A00050E0B801C6010E94F7031C012097A9F18E
:1008B000F801E80FF91F8EE28083BE010D2E000CB7
:1008C000880B990B0E9459089B01AC0160E070E015
:1008D00080E291E40E9452092B013C01B601DD0C3B
:1008E000880B990B0E9459089B01AC01C501B4010A
:1008F0000E9442079B01AC018FEF281A380A020DB3
:10090000131DC301B2010E94E5080E942108DC0109
:10091000CB01AE01B8010E94F703DF91CF911F9187
:100920000F91FF90EF90DF90CF90BF90AF909F908E
:100930008F907F906F905F904F903F902F90089591
:100940007F928F929F92AF92BF92CF92DF92EF925F
:10095000FF920F931F93CF93DF938C017801F801DF
:10096000C1918F018C2F90E00E94FF0A892BB1F773
:10097000C701CD3239F0CB3241F0CD3269F401E01C
:1009800010E005C00FEF1FEF02C001E010E07C0196
:10099000FFEFEF1AFF0A02C001E010E0F701D0807C
:1009A0008D2D90E0C0970A9708F07DC0E701219651
:1009B000812C912C540120E030E040E251E4C5014B
:1009C000B4010E94E5084B015C018D2D90E0C097B9
:1009D000BC01990F880B990B0E9459089B01AC012F
:1009E000C501B4010E9443074B015C017E01D9900F
:1009F0008D2D90E0C0970A97F0F258C0F7017180F2
:100A0000872D90E0C0970A97B8F5E70122960F2E40
:100A1000C12CD12CF0E8EF2EFFE3FF2EF02D20E0CB
:100A200030E040E251E4C501B4010E94E5084B0109
:100A30005C01672D70E060537109072E000C880B74
:100A4000990B0E9459089B01AC01C501B4010E9499
:100A500043074B015C0120E030E040E251E4C70174
:100A6000B6010E94E5086B017C017990872D90E02A
:100A7000C0970A97A0F208C00F2EC12CD12CF0E825
:100A8000EF2EFFE3FF2EF02DB801110F880B990B0D
:100A90000E945908A50194010E94E508A70196014A
:100AA0000E94AF0710C0812C912C5401FEE2DF168A
:100AB00009F4A4CF0F2EC12CD12CF0E8EF2EFFE3C8
:100AC000FF2EF02DE1CFDF91CF911F910F91FF907D
:100AD000EF90DF90CF90BF90AF909F908F907F90DE
:100AE0000895A09AA89808958AB388618ABB8BB3A9
:100AF000877E8BBB08958AB380668ABB8BB38F7960
:100B00008BBB08950E9474050E947B050895DB9AB3
:100B1000DC9808958BB3877E8BBB089587B38C7F59
:100B200087BB88B3836088BB08958F929F92AF92F2
:100B3000BF92CF92DF92EF92FF920F931F93CF93CA
:100B4000DF93CDB7DEB7C65CD1090FB6F894DEBF30
:100B50000FBECDBF7C011F8AFE013C96DE011196BF
:100B60008E010A5E1F4F90E391939D93E017F1076A
:100B7000D9F71E8A1B861C8619826E0187E1C80E72
:100B8000D11CC6010E94080BD6010D900020E9F788
:100B9000119780E2ECE9F1E001900D928A95E1F77E
:100BA000979A84EF91E00E943B02BE01645F7F4F01
:100BB000CE0101960E9452028981C355DF4F88837E
:100BC000CD5AD0408A81C255DF4F8883CE5AD0405B
:100BD000C155DF4F1882CF5AD040FE013396DE0157
:100BE000A055BF4F9E01255F3F4F81918D93E21726
:100BF000F307D9F7C854DF4F1882C85BD040CE0145
:100C000083559F4F0E94A0044B015C01CE0180558B
:100C10009F4F0E94A00420E030E040E752E40E9491
:100C2000AF079B01AC01C501B4010E94430724E05A
:100C300030E0AE014F5F5F4F0E9435048C85C65493
:100C4000DF4F8883CA5BD0408D85C554DF4F8883D2
:100C5000CB5BD0408E85C454DF4F8883CC5BD040C3
:100C6000C354DF4F1882CD5BD040FE013F96DE01BA
:100C7000A254BF4F81918D930E171F07D9F7CB5305
:100C8000DF4F1882C55CD040CE0186549F4F0E9432
:100C9000A0044B015C01CE0182549F4F0E94A0042E
:100CA00020E030E040E752E40E94AF079B01AC0136
:100CB000C501B4010E94430724E030E0AE01445F67
:100CC0005F4F0E9435048E01095E1F4FBE016F5FAA
:100CD0007F4FC8010E94080BF80101900020E9F73E
:100CE00031978CE290E091838083BE01645F7F4FF7
:100CF000C8010E94080B979884EF91E00E943B0284
:100D0000B801C7010E94A802CA53DF4F0FB6F8947A
:100D1000DEBF0FBECDBFDF91CF911F910F91FF902E
:100D2000EF90DF90CF90BF90AF909F908F900895FD
:100D30001F920F920FB60F9211242F933F934F9350
:100D40005F936F937F938F939F93AF93BF93EF9333
:100D5000FF9380916000823089F018F4813031F087
:100D600056C08330E9F0843011F151C08CB1823229
:100D700009F04DC082E08093600049C08091C001BD
:100D8000E1E0E80FE093C0018D3030F48CB1F0E089
:100D9000E453FE4F80833BC083E08093600037C004
:100DA0008CB18A30A1F584E08093600030C0E0917E
:100DB000BF0181E08E0F8093BF019CB1F0E0ED5345
:100DC000FE4F90839A3019F5E82FF0E0EF53FE4F75
:100DD0001082E0EDF1E0ADECB1E02AED31E081917F
:100DE0008D93E217F307D9F78AE08093BE01109242
:100DF000D70181E0809360001092BF011092C00182
:100E00008091C10180688093C1010E943D07FF91DC
:100E1000EF91BF91AF919F918F917F916F915F9172
:100E20004F913F912F910F900FBE0F901F901895EB
:100E30008AB188618AB980B5866880BD83E389B943
:100E400010BC08955D9BFECF8CB908955F9BFECFCB
:100E50008CB10895CF93DF93EC018881882351F002
:100E600021960E94220781E090E00E943B02899136
:100E70008111F7CFDF91CF9108958CB18CB18CB1F6
:100E8000579808955058BB27AA270E945A070C94D8
:100E9000AB080E949D0838F00E94A40820F039F4A5
:100EA0009F3F19F426F40C949A080EF4E095E7FBA2
:100EB0000C949408E92F0E94BC0858F3BA176207F3
:100EC00073078407950720F079F4A6F50C94DE08E3
:100ED0000EF4E0950B2EBA2FA02D0B01B901900155
:100EE0000C01CA01A0011124FF27591B99F0593F99
:100EF00050F4503E68F11A16F040A22F232F342FE1
:100F00004427585FF3CF469537952795A795F0402E
:100F10005395C9F77EF41F16BA0B620B730B840B43
:100F2000BAF09150A1F0FF0FBB1F661F771F881FFB
:100F3000C2F70EC0BA0F621F731F841F48F4879553
:100F400077956795B795F7959E3F08F0B0CF939545
:100F5000880F08F09927EE0F9795879508950E94BE
:100F6000C3070C94AB080E94A40858F00E949D0887
:100F700040F029F45F3F29F00C94940851110C942F
:100F8000DF080C949A080E94BC0868F39923B1F317
:100F9000552391F3951B550BBB27AA27621773079F
:100FA000840738F09F5F5F4F220F331F441FAA1F33
:100FB000A9F335D00E2E3AF0E0E832D091505040EF
:100FC000E695001CCAF72BD0FE2F29D0660F771F9D
:100FD000881FBB1F261737074807AB07B0E809F083
:100FE000BB0B802DBF01FF2793585F4F3AF09E3F08
:100FF000510578F00C9494080C94DF085F3FE4F3FB
:10100000983ED4F3869577956795B795F7959F5F4A
:10101000C9F7880F911D9695879597F90895E1E096
:10102000660F771F881FBB1F621773078407BA07F5
:1010300020F0621B730B840BBA0BEE1F88F7E09550
:1010400008950E9428086894B1110C94DF0808954F
:101050000E94C40888F09F5798F0B92F9927B7517C
:10106000B0F0E1F0660F771F881F991F1AF0BA954C
:10107000C9F714C0B13091F00E94DE08B1E00895C4
:101080000C94DE08672F782F8827B85F39F0B93FB6
:10109000CCF3869577956795B395D9F73EF49095FF
:1010A0008095709561957F4F8F4F9F4F0895E8947D
:1010B00009C097FB3EF490958095709561957F4FA0
:1010C0008F4F9F4F9923A9F0F92F96E9BB2793954E
:1010D000F695879577956795B795F111F8CFFAF45E
:1010E000BB0F11F460FF1BC06F5F7F4F8F4F9F4F8F
:1010F00016C0882311F096E911C0772321F09EE8ED
:10110000872F762F05C0662371F096E8862F70E052
:1011100060E02AF09A95660F771F881FDAF7880F2C
:101120009695879597F9089597F99F6780E870E0FD
:1011300060E008959FEF80EC089500240A9416164D
:10114000170618060906089500240A9412161306B5
:10115000140605060895092E0394000C11F4882343
:1011600052F0BB0F40F4BF2B11F460FF04C06F5F5F
:101170007F4F8F4F9F4F089557FD9058440F551F35
:1011800059F05F3F71F04795880F97FB991F61F009
:101190009F3F79F087950895121613061406551F80
:1011A000F2CF4695F1DF08C0161617061806991FEC
:1011B000F1CF86957105610508940895E894BB27E1
:1011C00066277727CB0197F908950E94F8080C94B9
:1011D000AB080E949D0838F00E94A40820F09523D7
:1011E00011F00C9494080C949A0811240C94DF08C4
:1011F0000E94BC0870F3959FC1F3950F50E0551FF6
:10120000629FF001729FBB27F00DB11D639FAA275B
:10121000F00DB11DAA1F649F6627B00DA11D661FAA
:10122000829F2227B00DA11D621F739FB00DA11DCB
:10123000621F839FA00D611D221F749F3327A00D85
:10124000611D231F849F600D211D822F762F6A2F21
:1012500011249F5750409AF0F1F088234AF0EE0F86
:10126000FF1FBB1F661F771F881F91505040A9F7B3
:101270009E3F510580F00C9494080C94DF085F3F6A
:10128000E4F3983ED4F3869577956795B795F795EF
:10129000E7959F5FC1F7FE2B880F911D9695879567
:1012A00097F90895FA01EE0FFF1F309621053105D9
:1012B000A1F16115710561F48038BFE39B0749F125
:1012C00068949038810561F08038BFEF9B0741F04A
:1012D00099234AF5FF3FE1053105210519F1E8940D
:1012E0000894E795D901AA2329F4AB2FBE2FF85F04
:1012F000D0F310C0FF5F70F4A695E0F7F73950F017
:1013000019F0FF3A38F49F779F930DD00F9007FCA8
:101310009058089546F00C949A0860E070E080E8D8
:101320009FE308954FE79F775F934F933F932F93EA
:101330000E944D0A2F913F914F915F910E94E508C5
:101340000C94AA0929F416F00C9494080C94DE0865
:101350000C949A080E94C408A8F39638A0F707F8DE
:101360000F92E8942BE33AEA48EB5FE70E94FB0810
:101370000F920F920F924DB75EB70F920E94950A8F
:10138000E4E5F0E00E94DC094F915F91EF91FF915D
:10139000E595EE1FFF1F49F0FE57E0684427EE0F6A
:1013A000441FFA95E1F74195550B0E940F0A0F90E3
:1013B00007FE0C94030A0895DF93CF931F930F93B6
:1013C000FF92EF92DF927B018C01689406C0DA2EC7
:1013D000EF010E94F808FE01E894A591259135914E
:1013E00045915591A6F3EF010E945A07FE0197011E
:1013F000A801DA9469F7DF90EF90FF900F911F91A9
:10140000CF91DF9108959B01AC0160E070E080E82E
:101410009FE30C94AF070C9494080C94C90A0E94A3
:10142000C408D8F39923C9F3940F511DA3F3915025
:10143000504094F059F0882332F0660F771F881FD0
:1014400091505040C1F79E3F51052CF7880F911DD8
:101450009695879597F908955F3FACF0983E9CF07C
:10146000BB27869577956795B79508F4B1609395F6
:10147000C1F7BB0F58F711F460FFE8CF6F5F7F4FE4
:101480008F4F9F4FE3CF0C94DF0816F00C94C90ADE
:101490000C949A0868940C9494080E94C408A8F3C9
:1014A0009923C1F3AEF3DF93CF931F930F93FF9272
:1014B000C92FDD2788232AF02197660F771F881F01
:1014C000DAF720E030E040E85FEB9FE3883920F076
:1014D000803E38F021968F770E944307ECE7F0E0DA
:1014E00004C00E944307E9EAF0E00E94DC098B0196
:1014F000BE01EC01FB2E6F5771097595771F880BA4
:10150000990B0E94590828E132E741E35FE30E940A
:10151000F808AF2D9801AE01FF900F911F91CF9168
:10152000DF910E945A070C94AB08FA01DC01AA0F64
:10153000BB1F9B01AC01BF5728F422273327442748
:10154000507820C0B75190F4AB2F002446953795C2
:101550002795011CA395D2F3002071F0220F331FB1
:10156000441FB395DAF30ED00C9442076130710535
:10157000A0E88A07B94630F49B01AC0166277727BB
:1015800088279078309621F02083318342835383DB
:1015900008959F3F31F0915020F487957795679596
:1015A000B795880F911D9695879597F9089597FBA4
:1015B000072E16F4009407D077FD09D00E94EB0A9D
:1015C00007FC05D03EF4909581959F4F0895709546
:1015D00061957F4F0895AA1BBB1B51E107C0AA1F4D
:1015E000BB1FA617B70710F0A61BB70B881F991FC4
:1015F0005A95A9F780959095BC01CD010895911158
:101600000C94130B803219F089508550C8F7089557
:10161000FB01DC010D900020E9F7119701900D927C
:101620000020E1F70895992788270895F894FFCFBF
:101630000120526573657420746F205354415254D5
:10164000002020534D4152542048454C4D455400F4
:101650002048656C6D657420576561726564002073
:1016600048656C6D65742052656D6F766564002009
:1016700056656869636C652053746F7070656400AB
:10168000416C636F686F6C20436F6E73756D65643A
:10169000004163636964656E74204F6363757227EC
:1016A0006400596F75722056656869636C652047E0
:1016B0006F74204163636964656E742061742000F7
:1016C00050485F4E554D424552002056656869634B
:1016D0006C65204D6F76696E670053656E64696E48
:1016E0006720534D533A00220D002E204175746F30
:1016F0006D6174656420534D532042793A5348001C
:101700004641494C45442021004F4B0047534D3A38
:1017100020003B0D0041542B434E4D493D322C32AD
:101720002C322C302C300D0041542B434D47533D6F
:1017300022300041542B434D47463D310D0041546A
:101740000D002020494E495449414C495A494E47C1
:1017500000202020202020202020202000204C417C
:10176000543A002026204C4F4E3A200020687474D2
:10177000703A2F2F6D6170732E676F6F676C652ED7
:0C178000636F6D2F6D6170733F713D0051
:00000001FF
